:1000000040070020911900004F5A000065190000B8
:100010006519000065190000651900000000000066
:10002000000000000000000000000000D5150000E6
:10003000651900000000000081150000792B000008
:100040008516000085160000851600008516000044
:100050008516000085160000851600008516000034
:100060008516000085160000851600008516000024
:100070008516000085160000851600008516000014
:100080008516000085160000851600008516000004
:1000900085160000851600008516000085160000F4
:1000A00085160000851600008516000085160000E4
:0800B000851600008516000012
:1000B80053B94AB9002908BF00281CBF4FF0FF31C7
:1000C8004FF0FF3000F074B9ADF1080C6DE904CEC3
:1000D80000F006F8DDF804E0DDE9022304B070471B
:1000E8002DE9F047089E0D4604468846002B4DD161
:1000F8008A42944668D9B2FA82F252B101FA02F3FE
:10010800C2F1200120FA01F10CFA02FC41EA0308CD
:1001180094404FEA1C45210CB8FBF5FE1FFA8CF7FA
:1001280005FB1E8341EA03430EFB07F199420BD9F5
:100138001CEB03030EF1FF3080F01E81994240F260
:100148001B81AEF1020E63445B1AA4B2B3FBF5F057
:1001580005FB103344EA034400FB07F7A7420AD91A
:100168001CEB040400F1FF3380F00881A74240F241
:10017800058164440238E41B40EA0E4000211EB1A8
:10018800D4400023C6E90043BDE8F0878B4208D974
:10019800002E00F0EE800021C6E900050846BDE803
:1001A800F087B3FA83F100294AD1AB4202D38242E5
:1001B80000F2F980841A65EB030301209846002EAB
:1001C800E2D0C6E90048DFE702B9FFDEB2FA82F200
:1001D800002A40F09180A1EB0C054FEA1C471FFA5A
:1001E8008CFE0121B5FBF7F307FB1350250C45EAFC
:1001F80000450EFB03F0A84208D91CEB050503F1E6
:10020800FF3802D2A84200F2CB8043462D1AA4B28E
:10021800B5FBF7F007FB105544EA05440EFB00FE5A
:10022800A64508D91CEB040400F1FF3502D2A64507
:1002380000F2BB802846A4EB0E0440EA03409EE788
:10024800C1F120078B4022FA07FC4CEA030C20FA84
:1002580007F405FA01F31C43FD404FEA1C4900FA74
:1002680001F3B5FBF9F8200C1FFA8CFE09FB1855B1
:1002780040EA054508FB0EF0A84202FA01F20BD944
:100288001CEB050508F1FF3A80F08880A84240F28F
:100298008580A8F1020865442D1AA4B2B5FBF9F0CF
:1002A80009FB105544EA054500FB0EFEAE4508D98A
:1002B8001CEB050500F1FF346CD2AE456AD9023853
:1002C800654440EA0840A0FB0294A5EB0E05A54250
:1002D800C846A64656D353D05EB1B3EB080265EBC9
:1002E8000E0505FA07F722FA01F3CD401F43C6E9C8
:1002F80000750021BDE8F087C2F1200320FA03F160
:100308000CFA02FC25FA03F395400D434FEA1C470B
:100318001FFA8CFEB3FBF7F107FB11302B0C43EAF5
:10032800004301FB0EF0984204FA02F408D91CEBD2
:10033800030301F1FF382FD298422DD902396344C3
:100348001B1AADB2B3FBF7F007FB103345EA0345C0
:1003580000FB0EF3AB4208D91CEB050500F1FF3892
:1003680016D2AB4214D902386544ED1A40EA01416D
:1003780038E73146304607E78646E5E61846FAE6A6
:100388004B45A9D2B9EB020864EB0C0E0138A3E780
:100398004046EAE7204694E74146D1E7D0467BE766
:1003A800023B654432E7084609E76444023842E7FD
:1003B800704700BF7FB5254C204605F0A1FD68B900
:1003C800234A24492448302305F0FEF921682348AC
:1003D80005F0FAF91E48302105F0BDFA22681B49DC
:1003E8001F4805F0F1F980220023CDE90223A46813
:1003F800256885B10D21154802AB0722A84701469B
:1004080058B9124D174E3921E368284698470146D6
:1004180040B1154802E06FF05701144805F0D4F9CF
:1004280004B070BD0D2123696A46284698470146E5
:1004380008B10F48F2E70099304605F0C5F90021E8
:100448004FF4004004F090FDDDE700BF5C60000061
:10045800CC6200000C630000216300003E630000D2
:1004680057630000D56300009063000071630000CB
:10047800B363000038B54468816004F00304032CBA
:10048800054602D02CB1002000E0006800236B6014
:1004980038BD054A05490648452305F095F902483F
:1004A800452105F058FAEEE7E16300008F6400008B
:1004B800216300000B6801330B60014B1B68184770
:1004C80000000020014B1860704700BF00000020AA
:1004D80007B50B46002102460191034801A900F027
:1004E800BDFA03B05DF804FBBD0400002DE9F74F29
:1004F800B0F81C90009219F0080F044622D0012988
:100508000CBF49F0100949F02009A0F81C901434D8
:10051800204603F0EBFC68B99B4A9C499C48AC23F5
:1005280005F052F99B48214605F04EF99648AC2152
:1005380005F011FA009B83F31188BFF36F8F03B0A6
:10054800BDE8F08F944FDFF8488209F007090229C7
:1005580006D1204605F045F90028D8D0012864D1F5
:10056800D4F818B0A38BBBF1000F19DA0026256860
:1005780023F00703C4E9006643F00103A383A38BB8
:1005880003F007024A45019203D0A268002A40F00E
:10059800138115B9002E00F059814FF0000A0DE1C2
:1005A80003F00702511F012920D8002123F0070377
:1005B800062A25689BB2C4E900110AD13DB1E28B35
:1005C80029460968013292B20029FAD1E28343F040
:1005D8000203A383204605F004F906460028CED07E
:1005E800A38B43F02003A3830026C8E7042A0DD178
:1005F80023F007039AB2A283204605F0F2F80546D5
:1006080088B142F02002A2830025EDE7634940F259
:100618001B133A46404605F0D7F840F21B113846FE
:1006280005F099F900252E46A9E7032834D1B9F138
:10063800000F0BD05A4940464FF4AB733A4605F0C9
:10064800C3F84FF4AB71384605F085F923685BB9F8
:100658005449404640F257133A4605F0B5F840F27F
:100668005711384605F077F923691E685EB94E4977
:1006780040464FF4AD733A4605F0A6F84FF4AD7115
:10068800384605F068F9A38B23F0070343F0060307
:10069800A3830025AB4672E7042831D1B9F1020FD4
:1006A8000BD04249404640F25D133A4605F08CF8BB
:1006B80040F25D11384605F04EF9E38B5BB13C49D9
:1006C80040464FF4AF733A4605F07EF84FF4AF71E9
:1006D800384605F040F923695E685EB932494046FC
:1006E80040F261133A4605F06FF840F2611138465E
:1006F80005F031F9A38B23F0070343F00403C7E7A0
:10070800052831D1B9F1010F0BD02A4940464FF4E1
:10071800B2733A4605F058F84FF4B271384605F00E
:100728001AF923685BB91F49404640F265133A46F7
:1007380005F04AF840F26511384605F00CF92369CE
:100748009E685EB9184940464FF4B4733A4605F0BE
:100758003BF84FF4B471384605F0FDF8A38B23F04D
:10076800070343F0050393E70C4940F26B133A463D
:10077800404605F029F8002540F26B11384605F08F
:10078800EAF82E4686E700BFA7640000CD640000A3
:1007980021630000E4640000046400008F6400002A
:1007A8002664000032640000556400006C64000098
:1007B80082640000916400004FF0010A43F00803CE
:1007C80004F11409A383484603F090FB68B9384A3A
:1007D8003849AC23404604F0F7FF3748494604F04F
:1007E800F3FF3348AC2105F0B6F8009B83F311887A
:1007F800BFF36F8FBAF1000F37D1002D47D116B173
:100808002E492046B0474FF02003EFF3118B83F3B6
:100818001288BFF36F8F4846CDF800B003F058FB3D
:1008280068B9234A26498123404604F0CDFF25486C
:10083800494604F0C9FF1E48812105F08CF8484656
:1008480003F064FBA38B23F00803A383A38BDA06CE
:1008580025D523F01003A3830121B4F81C9009F0D7
:10086800070900297FF473AE51E6A1680029C4D0B6
:10087800D1F800A04B68019A9C4620465B46E047A9
:10088800BAF1000FB9D05146DAF800A0F2E72946CC
:10089800019A2D685B46204604F0BFFFADE713F0D0
:1008A80020011EBF23F02003A3830221D5E700BF48
:1008B800A7640000CD640000E4640000D1080000D3
:1008C800F96400000E650000F8B504460D4600F115
:1008D80014064FF02003EFF3118783F31288BFF358
:1008E8006F8F304603F0F4FA68B90C4A0C490D488A
:1008F800812304F069FF0C48314604F065FF07487E
:10090800812105F028F8304603F000FBA5613A463E
:1009180020460121BDE8F840FFF7E8BDA7640000C4
:10092800F9640000216300000E6500002DE9F0471E
:1009380004460F4604F087FF051E5EDB04F1140928
:100948004FF02003EFF3118A83F31288BFF36F8F00
:10095800484603F0BDFA68B9384A3949394881230D
:1009680004F032FF3848494604F02EFF334881210D
:1009780004F0F1FF484603F0C9FAE38BA28B4FF667
:10098800FF718B4202F0070650D0022E24D10133AA
:10099800E38335464FF00108484603F0A7FA68B9E3
:1009A800264A2A492748AC2304F00EFF284849461E
:1009B80004F00AFF2148AC2104F0CDFF8AF3118826
:1009C800BFF36F8FB8F1000F17D0002332463946B6
:1009D800204604F022FF10E0930701D0062E0FD125
:1009E80000233B606368F3B9C4E900773546FEB974
:1009F800524602212046FFF779FD2846BDE8F087D8
:100A0800052E18D0012E0BD012490E48124A40F27A
:100A1800C91304F0D9FE104840F2C91104F09BFF35
:100A28006FF0040504E01F606760DFE76FF00A05F8
:100A38004FF00008B0E76FF08505F9E7A7640000FC
:100A4800F9640000216300000E650000CD64000019
:100A5800E464000091640000046400002DE9F04F94
:100A680091B08B46029092461C4600259AF80000E9
:100A780008B928465FE325280AF1010707D0029B39
:100A8800594698470028C0F25683013512E21822C9
:100A980000210AA805F005F89AF80130252B78D02E
:100AA80000221046964694461646394617F8013BEA
:100AB8002B2B00F09D8000F29480202B00F09B806F
:100AC800232B00F09B802EB19DF8306046F0040681
:100AD8008DF83060BCF1000F05D09DF8306046F00D
:100AE80008068DF83060BEF1000F05D09DF8306023
:100AF80046F010068DF8306028B19DF8300040F0BF
:100B080020008DF830002AB19DF8302042F04002D4
:100B18008DF830209DF8302002F04400442803D19D
:100B28006FF386128DF830209DF830202A2B42F082
:100B380080028DF830207BD19DF8312042F00102EF
:100B48004B1C8DF831201A782E2A9DF831200CBFC5
:100B58000121002161F341028DF8312074D15A78C6
:100B68002A2A6AD0013300210A26184610F8012BD8
:100B7800A2F13007092F40F28E809DF830200E91A7
:100B8800C2F3400040EAD17161F341028DF8302090
:100B98005AE00AF102078DF833309DF83130D90751
:100BA80040F1498154F8049BB9F1000F07DA9DF828
:100BB800302042F004028DF83020C9F100095A07AC
:100BC80040F1428154F8048BB8F1000F80F2418162
:100BD8009DF831306FF341038DF831304FF0FF3815
:100BE80037E12D2B0CD0302B7FF46DAF01225CE761
:100BF8004FF0010C59E74FF0010E56E7012054E77A
:100C0800012652E70CFB0202303A33461E4616F81C
:100C1800010BA0F13007092FF4D9994293D09DF820
:100C280030100D92D20F62F341018DF830108AE72F
:100C38000B4600224FF00A0CE8E79DF8312042F0FD
:100C480004028DF8312002331F4617F8012B6C2A55
:100C580041D025D8682A2BD06A2A46D04C2A4CD0B5
:100C68001F4617F8012B9DF831308DF83320782A6C
:100C780000F2D980572A4DD8412A03D0453A022A92
:100C880000F2D1809DF83230042262F302038DF81D
:100C9800323001239EE006FB01213039034664E728
:100CA800742A26D07A2ADBD19DF8313006220DE04D
:100CB8005A78682A9DF8312006D1012161F3C602CD
:100CC8008DF831209F1CCCE71346022262F3C6033D
:100CD8008DF83130C5E75A786C2A9DF8312001D15A
:100CE8000421EBE713460322F0E79DF83130052293
:100CF800ECE79DF831300722E8E7BDF8303023F4FF
:100D0800F04323F0020343F4804343F00203ADF8B9
:100D18003030A6E7A2F15801202900F2848001A012
:100D280050F821F0F10D00002F0E00002F0E0000EA
:100D38002F0E00002F0E00002F0E00002F0E0000B7
:100D48002F0E00002F0E00008D0C00002F0E00004B
:100D5800F10D0000B10D00008D0C00008D0C00009D
:100D68008D0C00002F0E0000B10D00002F0E0000AA
:100D78002F0E00002F0E00002F0E0000F90D0000AE
:100D8800F10D0000150E00002F0E00002F0E0000C0
:100D9800150E00002F0E0000F10D00002F0E0000B0
:100DA8002F0E0000F10D00009DF83210012003F015
:100DB800780360F30201402B8DF8321002BF9DF8D2
:100DC800301041F001018DF83010632A31D1003B19
:100DD80018BF01239DF83020C2F340010B4363F391
:100DE80041028DF83020D8E69DF832100220DEE767
:100DF8009DF8322003F07803A3F14000032161F34A
:100E0800020243428DF832204341E3E79DF8322045
:100E1800032113F0780F61F302028DF8322014BF1A
:100E280001230023D6E79DF8303043F001038DF805
:100E380030300023CEE79DF93020002AB4BFDDF81A
:100E480034904FF0FF39BAE69B077FF5C7AEDDF85F
:100E580038809DF831100023CDE90D339DF83230EC
:100E680003F00703012BC1F3C30138D1CB1E042BB8
:100E780022D8DFE803F003090921210054F8043BD4
:100E8800DA17CDE90A3206E0073424F00704F4E85B
:100E98000223CDE90A239DF8303013F0030656D01B
:100EA80002983B465246594604F03FFD0028C0F2DE
:100EB80042810544BA46D9E554F8043B01294FEA72
:100EC800E372CDE90A3205D19DF828300A93002350
:100ED8000B93E0E70229DED1BDF92830D0E7022BD9
:100EE80023D1CB1E042B13D8DFE803F0030A0A1220
:100EF800120022680A920023201D0B930446CAE7B9
:100F0800E01D20F00700F0E80223CDE90A23F5E709
:100F180054F8043B0A9301294FF000030B93D3D0F4
:100F28000229B8D1BDF82830D0E7042B09D1E31D38
:100F380023F0070303F10804D3E90023CDE90A23CA
:100F4800A9E7032B04BF54F8043B0A93A3E79DF8D1
:100F580033007828AED8622822D825283FF48FADF0
:100F68005828A7D10DF126030093DDE90A0104AB47
:100F78000CAA04F094FC8246B8F1000F0DF126008B
:100F88000CDB9DF83020A0EB0A036FF3861298451E
:100F98008DF8302002D9A8EB03030D9380463DE07D
:100FA8006338152886D801A252F820F035100000C1
:100FB80099100000BD0E0000BD0E0000BD0E00001F
:100FC800BD0E000099100000BD0E0000BD0E00000F
:100FD800BD0E0000BD0E0000F3100000C11000009F
:100FE800C5100000BD0E0000BD0E00000D10000071
:100FF800BD0E0000C1100000BD0E0000BD0E0000B7
:10100800C1100000B8F1000FDDF828A00ADB414646
:10101800504604F026FD0AEB00080026BAF1000F3E
:101028000CD147E7504604F015FDF4E70A9B8DF80C
:10103800103000260DF1100A0DF11108A8EB0A0373
:1010480006B101339DF83220D00668D50233520626
:101058000D9948BF0E9A0B4448BF9B18B9F1000F71
:1010680076DD9DF83020A9EB0309C2F380030393D2
:1010780053076DD4500661D546B1029B5946304698
:101088009847002857DB039B01351E46302356E05E
:101098001E070FD413F0100618BF2026DDE90A2317
:1010A800002BBFF65FAF524263EB4303CDE90A233F
:1010B8002D2657E72B26F1E7002653E70A9840B379
:1010C8000DF1260300930CAA04AB002104F0E7FB02
:1010D800BDF8323003F0EF0343F4F04343F010035C
:1010E8008246ADF83230002646E70A9B07293FF6CC
:1010F800E1AEDFE801F00C04060C08080C0C1D70CA
:10110800D8E61D80D6E6EA17C3E90052D2E61D608C
:10111800D0E6DFF8C8A006460AF105088EE71107F1
:1011280048BF013393E7184603935946029B9847F3
:101138000028039B04DA11B0BDE8F08F20234D444A
:101148004A46002AA5EB090109F1FF39EBDC0D46F7
:1011580036B1029B5946304698470028EBDB0135EB
:101168009DF83230D90601D41A0706D5029B594694
:10117800302098470028DEDB01359DF83230DB0649
:1011880007D59DF83300029B594698470028D2DBC3
:1011980001350D9E2E44731B002B16DC0298434626
:1011A8005246594604F0C1FB0028C4DB0544A94453
:1011B800A9EB0503002B7FF77DAE029B5946202043
:1011C80098470028B7DB0135F2E7029B59463020E3
:1011D80098470028AFDB0135DDE700BF2665000032
:1011E800F8B505464FF02003EFF3118683F3128814
:1011F800BFF36F8F1D4802F06BFE68B91C4A1D498A
:101208001D48812304F0E0FA18491C4804F0DCFA70
:101218001748812104F09FFB144802F077FE184B11
:101228001C685CB1174FD4E90132002D08BF134682
:101238000BB1387898472468002CF4D10B4802F099
:1012480055FE68B90A4A10490B48AC2304F0BCFAA9
:1012580006490E4804F0B8FA0548AC2104F07BFBB7
:1012680086F31188BFF36F8FF8BD00BF78010020A7
:10127800A7640000F9640000216300000E65000007
:101288007C01002084010020CD640000E46400009B
:101298001FB50F4B1A68BAB901221A600D4A07CA5E
:1012A80001AB83E807000C4A4AB193E8070004F051
:1012B8002AFC002005B05DF804EBFFF791BF82F32C
:1012C8001188BFF36F8FF4E705B05DF804FB00BF2A
:1012D80004000020840100200F5B0000F0B589B0F5
:1012E8006E4601460546304604F03DFB96E8070089
:1012F800204C84E8070020782646002837D01E4B6B
:10130800002018606B1C1DD091420CD21B491C4A4E
:101318001C48CA2304F058FA1B4804F055FA184828
:10132800CA2104F018FBA7681848194A4FF4004C62
:1013380000210023E7FB0C01FEF7BAFE0121281A61
:1013480004F0C8F802F09EFF0120FFF749FF96E875
:10135800070005AB83E807000E4A1AB193E80700B7
:1013680004F0BEFBFFF794FF03F0DCFB207809B024
:10137800F0BD00BF8401002004000020A265000029
:101388002C65000021630000E26500003F420F0069
:1013980040420F00E95A00000D2903690DD1B3F945
:1013A800043007484FF224414B4393FBF0F100FB14
:1013B800113311605360002070476FF0850070474B
:1013C80040420F0010B50469044802F079FB002878
:1013D80020600CBF6FF01500002010BD07660000EC
:1013E800392913B504690BD00D2909D00D490E48C8
:1013F8000E4A602304F0E8F90C48602104F0ABFAC7
:1014080020680DF10602002104F0B2FA0028A3BFFB
:10141800BDF9063000201B096FF00400A8BFA380A7
:1014280002B010BD4B660000216300000D6600008D
:10143800014910220A60704710ED00E072B6404082
:1014480080F31188BFF36F8FBFF34F8F30BF62B641
:10145800BFF36F8F704700BF72B6494081F31188A0
:1014680020BF80F3118862B6704700BF43B2002BDB
:1014780008DB012200F01F0002FA00F05B09024AB3
:1014880042F82300704700BF00E100E0054B420925
:1014980000F01F0053F82220012303FA00F0104047
:1014A800704700BF00E100E070B54C1C072C0546F2
:1014B8000E460FD9114A12491248582304F084F9EC
:1014C8001148314607232A4604F07EF90B48582173
:1014D80004F041FA6BB2002BACBF03F160430B4B35
:1014E8004FEA4414B8BF05F00F05E4B2AABF03F5EC
:1014F80061435C5583F8004370BD00BF8E660000F1
:10150800C466000021630000DF66000014ED00E0FF
:1015180030BFFFF7FDBF00BF08B5084B084A23F0EE
:101528007F039360BFF34F8FBFF36F8F02F06AFBA7
:1015380003F00CFE00F01CFA02F06EFB0000000045
:1015480000ED00E0094A0A49936809689967094962
:1015580058674B6843F080534B60002383F311882E
:10156800BFF36F8F9368986F704700BFDC0200204D
:10157800C862000000ED00E012498A684FF03000B0
:101588001044EFF3098C80E8F01F202080F31288C4
:10159800BFF36F8F0C4F4FF00066CA698A603E60D8
:1015A800506F0023536780F3118804B5104600F08C
:1015B80021FABDE8044002F1300090E8F01F8CF3F6
:1015C80009887047DC02002004ED00E01EF0040FDB
:1015D8000CBFEFF30880EFF30980816911F8021C52
:1015E8000229FFD001B504F026FA01BD42F8203CDB
:1015F800009B42F81C3C0A49019B42F8183C029B9C
:1016080042F8143C21F001014FF0807342F8043C89
:1016180042F8081C0023203A02654367704700BF60
:1016280093580000094A0346906870B113F1160FE9
:10163800406E05D0A0F120029A4205D8834203D219
:10164800814228BF0020704700207047DC0200203C
:1016580008B5094B98600D46144600F0CBF92046B2
:1016680085F30988002163B681F31188BFF36F8F72
:101678000022002304F009F9DC02002001B572B64B
:101688000B4A906900281EBF0021916104F054FCA8
:1016980062B6EFF30580A0F110004FEAC0000549DB
:1016A800014409C99847BDE80140034908470000BB
:1016B800DC02002074600000C5160000044B996825
:1016C800D869884203D003494FF080520A607047B6
:1016D800DC02002004ED00E0224B70B515469A6A42
:1016E8009A6A9A6A0446900719D5586B9A6A12063C
:1016F80015D519B19A6A22F080029A629A6A9A6A92
:10170800D6060FD49B6A99070CD40024154A936A0D
:1017180043F0FF03936200232B70204670BD6FF0E7
:101728001500EBE70F4E73681A05EED52146FFF753
:1017380079FF044618B180F309880224E6E7B36A02
:10174800DB06E2D5084A0949094840F2491304F082
:101758003BF8084804F038F8034840F2491104F00F
:10176800FAF8D3E700ED00E01F67000059670000B2
:1017780021630000A36700000C4B9A6A9A6A9A6A70
:10178800920508D59A6B9A6A120404D518B19A6A18
:1017980022F400429A62054B9A6A9A6A9A6A002071
:1017A80042F47F429A620870704700BF00ED00E083
:1017B80070B55E4B5C688AB00D46C4F30804002619
:1017C80086F31188BFF36F8F02F07F43B3F17F4F29
:1017D80008D102F00C03082B04D011075CBF0546A2
:1017E80001267DB9524A5349534840F2F23303F077
:1017F800EBFF524803F0E8FF4D4840F2F23104F0A5
:10180800AAF8002500238DF80730E31E032B00F209
:101818008680DFE803F0026F7377444BDC6A14F0CC
:1018280002047CD1DA6A002A0ADBDA6A520054D54B
:10183800AA6932F8021C4DF60272914219D12C683D
:101848009DF807309BB92022294602A804F01EF90A
:10185800099B002E65D0C3F3080222B96FEA53230F
:101868006FEA4323099302A9204604F0E2F80AB07C
:1018780070BD93F828203AB10DF1070201212846DE
:10188800FFF72AFF0446DBE793F829202AB10DF178
:1018980007010120FFF770FFF4E75A8D92B262B199
:1018A8009A6A9A6A9A6A9A6A9A6A9A6A9A6A6FEABB
:1018B80002426FEA12429A62C2E721491C4A1E4854
:1018C80040F2C32303F080FF1E4803F07DFF40F27F
:1018D800C321174804F03FF8B2E71949144A1648DB
:1018E80040F2C72303F070FF174803F06DFF40F282
:1018F800C721EEE70DF107020021C0E70DF107014E
:101908000020C7E7094B9A6A9A6A9A6A9A6A9A6A99
:101918009A6A9A6A6FEA02426FEA12429A6200244D
:101928008EE723F4FF7323F001039BE700ED00E04B
:101938001F670000C667000021630000D967000028
:101948008F640000176800003B680000024A536972
:1019580043F010035361704700ED00E0EFF3088097
:10196800EFF3098101B57246FFF722FF01BD00BF01
:10197800044800232021C21801331E2B82F80013CB
:10198800F9D1704700E100E004F002FB202080F369
:10199800118808484FF40261401880F30988EFF372
:1019A80014800221084380F31488BFF36F8FFFF778
:1019B800B3FD000080080020064B9B68834207D1D6
:1019C800EFF3058323B1044A536843F0805353600F
:1019D80003F008BBDC02002000ED00E0024B034AE4
:1019E8000348012100F06EB80060002000000020CC
:1019F800CC610000426E054B203A1A60044A20214F
:101A0800C3E901121846012100F084B898010020AA
:101A180000000B15F0B51F4F00268E4201DB104663
:101A2800F0BD44689CB353B104F1FF3C14EA0C0FB9
:101A380018D11F2C16D905681CEA050F12D1202CC5
:101A48000568D0F808C0D2B20FD9B4F1004F0ED84B
:101A5800013CB4FA84F4C4F11F046400072A4CEA78
:101A6800040406D96FF01502D9E70824F6E73E24E6
:101A7800F4E725F01F05154345F0100544F001046F
:101A8800C7F89820C7F89C500132C7F8A040013623
:101A98000C30C2E700ED00E0044B0522C3F89420A7
:101AA800BFF34F8FBFF36F8F704700BF00ED00E0AB
:101AB800BFF35F8F024B0022C3F89420704700BF2A
:101AC80000ED00E038B50E4D01232A78FFF7A2FF9C
:101AD800287016300C4611D140F21113094A0A49F0
:101AE8000A4803F071FE2146094803F06DFEBDE87F
:101AF8003840044840F2111103F02DBF38BD00BF33
:101B0800200300206B6800008F6400002163000040
:101B1800A268000010B5124A00231278FFF77AFF76
:101B280010F1160F0C4609D00E4A072800DD10BD2B
:101B3800C2F89800C2F8A0300130F6E70A4A0B490B
:101B48000B484FF4987303F03FFE2146094803F011
:101B58003BFEBDE8104004484FF4987103F0FBBE0B
:101B68002003002000ED00E06B6800008F64000097
:101B780021630000CE680000274910B50C68082CC6
:101B880013D94FF4A473254A2549264803F01CFEAF
:101B980025480822214603F017FE20484FF4A47177
:101BA80003F0D9FE4FF0FF3010BDFFF781FF486802
:101BB8001E490022944200F10C001AD11C4B1C70E3
:101BC800FFF76AFFD1F89030C3F30723082B0ED034
:101BD8001849124A13484FF4D47303F0F5FD164818
:101BE80003F0F2FD0D484FF4D47103F0B4FE002069
:101BF800DAE7C1F8982050F80C3C23F01F03134390
:101C080043F01003C1F89C3050F8043C43F0010342
:101C1800C1F8A0300132CDE7D86100006B68000040
:101C28008F64000021630000FB68000000ED00E005
:101C3800200300202F6900007F690000014B186015
:101C4800704700BF0800002020B1034B800143F01B
:101C580001031847704700BFB061000037B50C4654
:101C68000A490B4A411A4023009349110546234665
:101C7800084803F066FF011E05DA2846234603B02C
:101C8800BDE83040184703B030BD00BFB4010020A4
:101C9800BB5B0000E45F000038B5CCB2012C054600
:101CA80009D9094909480A4A7E2303F08DFD0848E5
:101CB8007E2103F050FE29690C2304FB0314A06C59
:101CC80000F0070038BD00BFEC6900002163000088
:101CD800AF690000F8B5CCB2012C06690546174675
:101CE8000BD918491848194A40F2531303F06CFDF0
:101CF800164840F2531103F02EFE4FF02003EFF385
:101D0800118183F31288BFF36F8F0C2202FB0463E7
:101D18009B6C13F0C00301D09F4210D102FB0466F4
:101D28000123B364002081F31188BFF36F8F28B9B2
:101D3800696801EBC404636898470020F8BD4FF058
:101D4800FF30F0E7EC69000021630000AF69000094
:101D580070B50D460649411A044649110548402206
:101D6800FFF7B8FF2B4601462046BDE870401847EC
:101D7800B4010020E45F0000002270B50121044690
:101D88001046FFF791FB0020FFF770FB0F4801F0AA
:101D980023F90F4B984215D101F042F926690D49F4
:101DA800304603F05FFD00280BDB24690949012553
:101DB800B56404F1200003F055FD002801DB6565DA
:101DC800002070BD6FF00400FBE700BF151E000087
:101DD8000000AD0B1C62000001460C2309484B4370
:101DE80070B5C418D4E91056002248332264184448
:101DF80003F094FE2DB132462B460348BDE87040EF
:101E0800184770BDB4010020E45F0000012808B540
:101E180006D0032808D0A8B9104B9B6C5B071BD1D0
:101E2800BDE80840FFF7D8BF0D490E4A0E4840F2FA
:101E3800662303F0C9FC40F26621BDE80840094862
:101E480003F089BD0649074A074840F26A2303F0B0
:101E5800BBFC40F26A21F0E708BD00BFB4010020D6
:101E68008F640000AF6900002163000008B54FF0DF
:101E78002003EFF3118183F31288BFF36F8F124AA7
:101E8800136843F0020013F0010310600CD04FF008
:101E98008042D2F80C34D2F80C2413F0010303D09A
:101EA8000A4803F03BFE012381F31188BFF36F8FCB
:101EB80023B1BDE808400020FFF78EBFBDE8084009
:101EC800012001F0CDB800BF0C020020FC01002069
:101ED8001FB500220123CDE90223094ACDF800D01D
:101EE8006B46CDF804D003F05DFE002805DB4FF407
:101EF80080420023684602F07BF805B05DF804FBD9
:101F0800D95B0000094BBFF35B8F53E8002F22F029
:101F1800020143E800100028F7D1BFF35B8FD30715
:101F280002D4012001F0F0B8704700BF0C02002075
:101F38002DE9F0414749BFF35B8F0646012251E87E
:101F4800003F41E800200028F9D1BFF35B8FA3B917
:101F5800414942484B60CB608A60FEF7E7FC0028A5
:101F68000BDA3F493F48404A40F2262303F02CFC55
:101F78003D4840F2262103F0EEFC96B3731E012B78
:101F880053D8012E07D14FF08043D3F81C3403F007
:101F98000303012B25D003F0C9FF044618B9334BBE
:101FA8001B78002B4FD14FF02003EFF3118783F3F9
:101FB8001288BFF36F8F0124DFF8B4804FF080459B
:101FC800D5F81834D5F81824D2030CD503F0030338
:101FD800012B01D0012E06D10CB387F31188BFF372
:101FE8006F8FBDE8F081ACB13846FFF735FAD5F808
:101FF8001835002BE4D1D5F80421002AE0D0C5F823
:102008000431D5F804310123C5F81835C8F88031F2
:10201800AB60D5E70021212002F0A6FFE7E74FF0EB
:1020280080430222C3F80423DBE712490D480E4A15
:102038004FF40E7303F0C8FBBDE8F0410A484FF4B3
:102048000E7103F088BC4FF080430222C3F80823C6
:102058000746B1E710020020A4010020D4010020A7
:10206800106A000021630000AF690000220300200D
:1020780000E100E08F64000008B5084B08481860CC
:1020880003F03EFF38B10748FFF7D8FD0548FEF7D3
:1020980019FA002008BD6FF01200FBE714020020B7
:1020A800FC5F0000B12000000A2838B5074D04463F
:1020B80004D1286883680D215B689847286883687D
:1020C800E1B25B689847204638BD00BF1402002083
:1020D80070B5056916460C4661B92249224A23485B
:1020E800242303F071FB224803F06EFB1E482421D1
:1020F80003F031FC636863B91E491B4A1B4825235A
:1021080003F062FB1C4803F05FFB1748252103F02E
:1021180022FC6B685BB100229C4212D12368A9683B
:1021280052B9A1426B6000D1AB60002323606EB945
:10213800002070BD0B46EFE7A142136008BFAA60FC
:10214800F3E719681A460029F4D13EB1A8686B680C
:1021580023606C600028EBD1AC60EAE76FF01500F3
:10216800E7E700BF4C6A00001F6A00002163000017
:10217800556A0000646A0000766A000003685A091C
:102188000CBF4FF0FF32002203F01F0322FA03F3C3
:10219800DB0710B504460BD410491148114A4FF417
:1021A800057303F011FB0F484FF4057103F0D3FBDF
:1021B800236803F01F025B0922600BD00A49084814
:1021C800084A40F2192303F0FFFA064840F21921A1
:1021D80003F0C1FB4FF0A04010BD00BFC06A000073
:1021E800216300008D6A00008F64000008B5094B68
:1021F8001A786AB90121197006200521FFF754F9E8
:102208000620FFF733F9044B4FF00042C3F80423CC
:10221800002008BD2103002000600040B2F5A03F67
:102228002DE9F743046980460E461746994601F0A2
:102238001F0540F0AF8043681B7A01A845EA4313A5
:102248000193FFF79BFF019B03F5E07350F82330E0
:10225800D80700F1BE80E3680121B14019436369E2
:10226800E1600121B140B7F5A03F0CBF0B438B43A0
:102278006361A369584AD8F81070B9F5C02F0CBF2C
:102288000B438B43A3612369B9F5802F0CBF194316
:1022980023EA0101D8F8043021611B7A45EA431585
:1022A800D2F804330020DBB200F5A27152F82110F5
:1022B800C1F304218D4278D123FA00F1C90774D5FE
:1022C800830003F1804303F5C043D3F8101521F0D0
:1022D8000101C3F8101501238340C2F80833C0B2C6
:1022E80000F0A2FF2846002103F09CFCF868F040AB
:1022F80010F001004BD07869F04010F001045CD078
:10230800BB69F340DB075FBF396921FA06F606F0BF
:102318000106C6F1020601A854BFF6B2032600F072
:10232800A3FF2E4B984245D19DF80420930003F15A
:10233800804303F5C0432D02D3F8101521F447312B
:1023480021F44071C3F81015D3F8101505F4F855A9
:102358000D4345EA0646C3F81065930003F1804330
:1023680003F5C243002018609DF804101B688B0019
:1023780003F1804303F5C043D3F8102542F001026E
:10238800C3F81025144A01238B40C2F8043303B064
:10239800BDE8F083B2F5005F7FF45DAF012101FA7B
:1023A80006F3E16821EA030159E7013008287FF4C0
:1023B8007BAF97E76FF01200E9E73969F14001F068
:1023C8000101C1F103012846C9B203F02BFC2046E4
:1023D800DDE76FF08500DAE7006000400000AD0B34
:1023E8002E4BF7B52E4C40681340A34245D00ED86B
:1023F800062B44D006D8002B41D0022B41D06FF0D9
:10240800150038E0B3F5801FF9D1012409E0254C07
:10241800A34238D0B3F5A00F37D0B3F5800FEED173
:102428000224D50682F4807354BFC2F340160326F3
:10243800C3F300279305C2F3402507D51305D0F849
:1024480004C024D501238B40CCF80835037A01F069
:102458001F0141EA431101A80191FFF78FFE019A7C
:1024680045EA470343EA042302F5E07243EA860398
:1024780040F82230002003B0F0BD0724D1E71C4605
:10248800CFE70424CDE70524CBE70324C9E75305A8
:1024980042BF01238B40CCF80C35D7E70600F0008B
:1024A8000600100002004000524B2DE9F347D3F814
:1024B8007C61002E61D0504BD3E90520D9681B6997
:1024C800024321EA02084FF0A0424546D2F81045DF
:1024D8005C4028EA040401274FF0000995BB454BEE
:1024E800C3F87C51D3F87C31444A42480023012583
:1024F8001F46D0F8041305FA03FC1CEA010F0CD0A0
:10250800116851B103F5A27150F821101760C1F399
:10251800042105FA01F10C4311680133082B02F17B
:102528000402E6D15CBB56B1334FD7E90532FC68EB
:10253800134324EA030401250026002C47D102B0E6
:10254800BDE8F0872F4214D017EA080F09F01F0AD8
:1025580009D101A8CDF804A0FFF710FE019B03F5EF
:10256800E07350F823300021504603F05BFB25EA66
:10257800070509F101097F00B0E73446B4E71E4BAF
:102588005D68002DCFD02F68DFF87490DFF8748075
:10259800DFF874A0AB681C4214D06B6863B951466D
:1025A8001A484523424603F00FF9194803F00CF97D
:1025B8004521404603F0CFF9D5E9013229462240AA
:1025C80048469847002FAED03D463F68E2E725428F
:1025D8000CD03969F14001F00101C1F10301C9B220
:1025E80006F01F0003F01EFB24EA050401366D0007
:1025F800A3E700BF0060004018020020006100400F
:102608002C6000001F6A0000FB6C000021630000C2
:10261800766A000010B50446002201210320FEF767
:1026280043FF60682369064A00F1080100F0A0FF33
:10263800044B984214BF6FF00F00002010BD00BF7C
:10264800512600000000AD0B0378012B08D0022BA7
:1026580008D04BB9054B0B6201F1100001F08ABCA0
:10266800034BF8E7034BF6E7034BF4E70000AD0B29
:102678000100AE0B0200AE0B0100AD0B2DE9F04FCF
:10268800044687B00D461746994600694FF0FF3259
:102698004FF0FF3301F0ACFC20691030002200231A
:1026A80001F0A6FC6068DFF8C4A000F0D9FF4FF085
:1026B8000008B84501D3002529E095F808B01BF0BB
:1026C80008064CD11422314601A803F0EAF96A68D9
:1026D80002920BF001032A688DF804301BF0020FF8
:1026E8008DF8059004921CD17A1E424502D92A7DA4
:1026F800520718D59BBB2022606801A901F010F889
:10270800504512D01A4B98422CD06FF004056068DF
:1027180000F0D0FF206901F02DFC284607B0BDE885
:10272800F08F3246E8E74022E6E7206910304FF4A0
:102738008042002301F05CFC40B1606800F0BAFF01
:102748006368D3E9020101F037F9DEE723691B6A00
:10275800534505F10C05D8D108F10108A9E76FF038
:102768008505D4E76FF00F05D1E700BF0000AD0B7A
:102778000B00AD0B03685A090CBF4FF0FF32002263
:1027880003F01F0322FA03F3DB0710B504460BD44A
:1027980010491148114A4FF4057303F015F80F4812
:1027A8004FF4057103F0D7F8236803F01F025B09A3
:1027B80022600BD00A490848084A40F2192303F05E
:1027C80003F8064840F2192103F0C5F84FF0A0407D
:1027D80010BD00BFC06A0000216300008D6A0000C0
:1027E8008F640000F0B54B79012B2AD0032B25D13B
:1027F80010268B79032B21D1CC792CB1012C1DD13A
:1028080043685B689B0719D00A7912B1022A15D16F
:102818000E220B684568B3F5164F2D6865D02DD884
:10282800B3F5165F64D016D8B3F5966F62D00AD8A0
:10283800B3F5967F61D0B3F5167F61D06FF0850050
:1028480052E00026D5E7B3F5166F5CD0B3F5965F76
:10285800F4D1374B3CE0B3F5E14F57D007D8B3F587
:10286800615F55D0B3F5964FE8D1324B30E047F66B
:102878001227BB42E2D14FF4000329E0B3F5613FD0
:1028880048D013D8B3F5963F47D009D84DF6C0279E
:10289800BB4244D0B3F5614FD0D14FF46B0317E07E
:1028A800B3F5E13FCAD14FF0EB7311E0B3F5612FF7
:1028B80038D008D8204FBB4237D0B3F5E12FBDD16F
:1028C8004FF0E86304E01D4FBB42B7D14FF080538F
:1028D800C5F82435036903C9344322430433C5F8D2
:1028E8006C2583E803000020F0BD4FF41D03EFE7DB
:1028F800134BEDE74FF49E23EAE74FF4A033E7E7E5
:102908004FF41C33E4E74FF41D23E1E70D4BDFE7F9
:102918000D4BDDE74FF06C73DAE70C4BD8E74FF45B
:102928006503D5E74FF07063D2E74FF08063CFE7D8
:1029380000B0130000A04E0090D0030040420F00EA
:102948000050270000C0750000F03A0000903A01DE
:10295800F8B5066905460F4603F0E8FA10B92C4B9E
:102968001B7883B94FF02003EFF3118483F31288A7
:10297800BFF36F8F686803F0B1F928BB84F311883F
:10298800BFF36F8FEEE76424686803F0A7F970B9A6
:10299800012003F0FCF9013CF6D10021212002F0CE
:1029A800E3FAF0E784F31188BFF36F8FF5E74FF090
:1029B8002003EFF3118483F31288BFF36F8F6868E5
:1029C80003F08CF90028EDD006F8107F69680B68D1
:1029D8000122C3F84465C3F848250022C3F8202122
:1029E800D3F82001C3F85821D3F858214A68D206F1
:1029F80041BF0822C3F800254FF48002C3F804231E
:102A080001229A6084F31188BFF36F8FF8BD00BF6D
:102A180022030020F7B50746002201210220FEF715
:102A280043FD0220FEF722FD7D683E692C680023E5
:102A3800C4F8003501A8AB6837600193FFF79AFE28
:102A4800019A01239340C0F80835AB68019301A8A7
:102A5800FFF790FE019B03F5E073032240F8232063
:102A6800E868421C02D0297E03F02AF9D5E902233E
:102A78002869C4F80C25C4F81435431C02D0697EB3
:102A880003F01EF96B69581C13D001A80193FFF7D6
:102A980071FE019A01239340C0F808356B690193D0
:102AA80001A8FFF767FE019B03F5E073032240F8D6
:102AB8002320D5E904323969C4F808253846C4F812
:102AC80010350431FFF78EFE0746002845D16B68A4
:102AD800190719D506F1120000F0FEFB224B9842A7
:102AE8003ED1B07CC30003F1804303F5F83304F111
:102AF8000C0204F59071C3F81015C3F814251B4A8D
:102B080001238340C2F804350823C4F80035EB6874
:102B180001330CD00023C4F81031D4F8103106F179
:102B28001103C4F834350123C4F8383523606B68C1
:102B38001A075CBF4FF48072C4F80423DB0644BF55
:102B48004FF48003C4F8043310360023C4F84465F6
:102B5800C4F848350123A360E360384603B0F0BDEC
:102B68006FF00407F9E700BF0000AD0B00F001406B
:102B780010B5064C064907482246172302F024FEE2
:102B880020461721BDE8104002F0E5BEF16A0000BA
:102B98008F64000021630000044A1368C81A20F0FB
:102BA8007F400344136002F0E5BC00BF40020020F0
:102BB8002DE9F843860006F1804600F1500406F539
:102BC8008836A400A4B204F180444FF48037D6F8C4
:102BD8004035DFF86C8021F07F4504F58834874064
:102BE800D8F80495A3EB090323F07F4329F07F422B
:102BF800012BC6F8402502D1132003F0C4F909F1CE
:102C08000202AB1A23F07F43B3F5000F88BF1546C5
:102C1800002323602368C8F8447325F07F43C6F86F
:102C28004035D8F80435994506D0EB1A023B23F015
:102C38007F43B3F5000F01D8BDE8F8832B46CFE7F3
:102C48000010014070B5154D154C00262B6800206A
:102C580006B170BDD4F80423D203FAD5D4F84021C4
:102C6800002AF6D0C4F84061D4F840214FF48032ED
:102C7800C4F84823D4F84015D4F80465721A22F031
:102C88007F42B2F5000F88BF314601261BB16A6842
:102C980028609847DAE72B60DBE700BF34020020A2
:102CA8000010014038B50F4C00254FF48033C4F8AC
:102CB8000855C4F804330C4B4FF40032C3F8802194
:102CC80001212A461120FEF7EFFB1120FEF7CEFB6B
:102CD8000123064AA360022023601360FFF728F946
:102CE800284638BD0010014000E100E03C02002009
:102CF800134AB0F1FF3F14BF03461346013B002BB4
:102D08001CDD9342A8BF13460E4AD2F804050E4AAA
:102D18001168401A10F4000F20F07F4218BF0023FA
:102D280001321344094A0A48106000205060044ADE
:102D3800934294BFC9188918FFF73ABF0023E3E705
:102D4800FFFF7F00001001404002002034020020F5
:102D5800A12B0000044BD3F80405044B1B68C01AD0
:102D680020F07F40704700BF001001404002002063
:102D7800BFF34F8F0549064BCA6802F4E06213435C
:102D8800CB60BFF34F8F00BFFDE700BF00ED00E051
:102D98000400FA054FF08053D3F83021082A06D1F1
:102DA800D3F83431052B02D8024AD05C7047002092
:102DB800704700BF336B0000024AD2F80034002B82
:102DC800FBD0704700E001404FF0805310B5D3F8B6
:102DD80030210E2A01BFD3F844324FF08042C3F3AA
:102DE8004233C2F83C3502F0C4FF40B14FF0804393
:102DF8000022C3F80C21C3F81021C3F8382502F0CB
:102E0800B8FF002846D04FF080526A4BD2F804141D
:102E1800C3F82015D2F80814C3F82415D2F80C14F6
:102E2800C3F82815D2F81014C3F82C15D2F81414C6
:102E3800C3F83015D2F81814C3F83415D2F81C1496
:102E4800C3F84015D2F82014C3F84415D2F8241456
:102E5800C3F84815D2F82814C3F84C15D2F82C1426
:102E6800C3F85015D2F83014C3F85415D2F83414F6
:102E7800C3F86015D2F83814C3F86415D2F83C14B6
:102E8800C3F86815D2F84014C3F86C15D2F8442476
:102E9800C3F87025FFF77EFF18B1474B474AC3F8C0
:102EA8008C26FFF777FF18B1454BFB22C3F818258E
:102EB800FFF770FF70B14FF080414FF08053D1F8A9
:102EC800E42ED3F8583222F00F0203F00F03134315
:102ED800C1F8E43EFFF75EFF20B13A4B4FF40072B1
:102EE800C3F8402602F045FF48B14FF08043D3F8BD
:102EF8000024D20744BF6FF00102C3F800244FF04A
:102F08008053D3F830310E2B01BF4FF08042D2F8F6
:102F1800E43E43F00F03C2F8E43E4FF08053D3F889
:102F28003021082A0ED1D3F83431052B02D8264A8D
:102F3800D35C3BB14FF01023D3F808224FF0804305
:102F4800C3F858254FF01021D1F80032002B03DBCD
:102F5800D1F80432002B17DA1C4901234FF0102056
:102F6800C1F804351224FFF727FFC0F80042FFF725
:102F780023FFC0F80442FFF71FFF0023C1F8043500
:102F8800FFF71AFFFFF7F4FED1F80C32DB070DD577
:102F98000E480123C0F804350024FFF70DFFC1F8DF
:102FA8000C42FFF709FFC0F80445E9E7084B094A56
:102FB8001A6010BD00C00040005000404881030066
:102FC80000F00040009002402D6B000000E001403E
:102FD800480000200090D00310B5044648B90A49BB
:102FE8000A480B4AB52302F0EFFB0948B52102F065
:102FF800B2FC084B1A7922B9012207481C601A71E1
:1030080010BD0648FCE700BF766B00002163000096
:10301800396B0000440200200000AD0B0C00AD0B22
:1030280008B50B4B1B794BB90A490B480B4ACE2301
:1030380002F0CAFB0948CE2102F08DFC0020FEF701
:1030480025FA18B9BDE80840FEF710BA08BD00BF58
:1030580044020020846B000021630000396B0000EB
:10306800244B1B7910B504465BB923492348244AED
:103078004FF4857302F0A8FB21484FF4857102F0E4
:103088006AFC7CB1012C2AD01E491C481C4A4FF40A
:103098009E7302F099FBBDE8104019484FF49E71E9
:1030A80002F059BC4FF08043D3F81824D3F8181411
:1030B800C90312D502F00302012A0ED1C3F818255C
:1030C8004FF080430022C3F80421D3F804210222E0
:1030D800C3F8042301229A6010BD0022EEE74FF0E6
:1030E80080430022C3F80021D3F80021C3F8044329
:1030F8001C60F1E744020020846B0000216300009B
:10310800396B00008F64000038B5294B1B790446E1
:103118005BB928492848294A40F2431302F054FB76
:10312800264840F2431102F016FC7CB1012C24D051
:1031380023492148214A40F25F1302F045FBBDE8CC
:1031480038401E4840F25F1102F005BC4FF0804540
:103158000223C5F80833C5F80441D5F80431012322
:10316800EB6042F21074D5F81834DB031FD5012048
:1031780002F00DFE013CF6D119E04FF08045002326
:10318800C5F80843C5F80031D5F800316C6042F243
:103198001074D5F80C34D5F80C24D20303F00103CD
:1031A80005D523B1012002F0F2FD013CF1D138BD73
:1031B80044020020846B000021630000396B00008A
:1031C8008F6400004FF0804310B5D3F8002152B14E
:1031D8000020C3F80001D3F800210122C3F8082316
:1031E800104B1B6898474FF08043D3F8042172B105
:1031F8000022C3F80421D3F80421D3F81824D3F803
:103208001814920704D10122C3F818259A6010BD3A
:103218000222C3F80823034BBDE810401B680120B5
:10322800184700BF44020020012303FA00F0C3B28C
:1032380093B14FF02003EFF3118183F31288BFF3AA
:103248006F8F064AD36C23EA0000D06481F311889B
:10325800BFF36F8F02487047024870474C02002046
:103268000000AD0B0400AD0B2DE9F0410546DFF879
:103278005CE01748DFF85C800024FF220126E3B2F7
:103288004FF02001EFF3118C81F31288BFF36F8F99
:1032980022FA03F1C9070AD5DEF84C1006FA03F73B
:1032A800394201BF3943CEF84C1040462B708CF39D
:1032B8001188BFF36F8F404505D006FA03F39A4390
:1032C80004F10104DBD1BDE8F08100BF4C0200200D
:1032D8000200AD0B0000AD0B2DE9F041144A154E6C
:1032E800154F0546154800244FF0010E5FFA84FC7F
:1032F8004FF02003EFF3118883F31288BFF36F8F29
:103308000EFA0CF3134207D031680B4201BF194380
:10331800316085F800C0384688F31188BFF36F8F95
:10332800B84203D09A4304F10104DFD1BDE8F0812B
:10333800FFFF0F009C0200200000AD0B0200AD0B48
:1033480003685A090CBF4FF0FF32002203F01F0335
:1033580022FA03F3DB0710B504460BD410491148D1
:10336800114A4FF4057302F02FFA0F484FF4057114
:1033780002F0F1FA236803F01F025B0922600BD008
:103388000A490848084A40F2192302F01DFA06487B
:1033980040F2192102F0DFFA4FF0A04010BD00BF43
:1033A800C06A0000216300008D6A00008F6400007D
:1033B80037B5304B01930023C0F80431D0F804210D
:1033C800C0F82431D0F82421C0F81C31D0F81C21D1
:1033D800C0F80831D0F80821C0F800324B6381F8F2
:1033E8002F300123036291F82D200D469A4218BF11
:1033F8008360044602F0CDFC2B6883B140F286233B
:10340800AB60AB681C48C4F8043303B030BD294630
:10341800204602F0DBFC28B1019B013B0193019B94
:10342800002BF4DC95F82F305BB91348019B002B77
:10343800EBDC0023C4F8003505231048C4F8003538
:10344800E3E7D4F8C434C4F8C4348BB10C4A0B484D
:1034580013F0010F18BF104613F0020F02F101021A
:1034680018BF104613F0040F064B18BF1846DDE7C7
:103478000248DBE7A08601000000AD0B0100AD0BA0
:103488000000AE0B0200AE0B37B5344B019300239E
:10349800C0F80431D0F80421C0F82431D0F8242130
:1034A800C0F81C31D0F81C21C0F80831D0F8082128
:1034B8004B6381F82F308B6A012B04460D4617D1D8
:1034C8000B6A5B0614D40223C4F80032012323627A
:1034D80095F82D20022A18BF23602B6893B140F27B
:1034E8008623AB60AB681E48C4F8043303B030BD14
:1034F8000123E9E72946204602F068FC28B1019B30
:10350800013B0193019B002BF4DC95F82F305BB94C
:103518001348019B002BE9DC0023C4F80035052380
:103528001048C4F80035E1E7D4F8C434C4F8C4340A
:103538008BB10D4A0B4813F0010F18BF104613F05A
:10354800020F02F1010218BF104613F0040F074BD7
:1035580018BF1846DDE70348DBE700BFA086010077
:103568000000AD0B0100AD0B0000AE0B0200AE0B6E
:103578002DE9F3470746914698460C4649B9314923
:103588003148324AA32302F01FF93048A32102F040
:10359800E2F9D4E900239A4209D12D492A482B4A55
:1035A800A42302F011F92948A42102F0D4F997F8CC
:1035B80004A0284D3C2606FB0AF6A91991F82E30DE
:1035C800002B3DD18B6081F82D3081F8313081F8A6
:1035D8003030637BC1F8048081F8383045F80690B4
:1035E8002368019301A8FFF7ABFE019B03F5E07385
:1035F80040F20C6840F823806368019301A8FFF744
:103608009FFE019B03F5E07340F82380D4E9002373
:103618003868C0F80825C0F80C35A368C0F8243508
:10362800AB591BB140F30730FDF720FF3C2303FBE8
:103638000A550948012385F82E3002B0BDE8F08705
:103648000648FAE7DD6B000021630000A26B00006A
:10365800E66B0000A00200200000AD0B0500AD0BDA
:1036680070B5104C06793C2303FB0643054693F8D6
:103678002E30012B0BD00C490C480D4A40F2031395
:1036880002F0A2F80A4840F2031102F064F92B682C
:103698000522C3F800253C2303FB0644022384F8D3
:1036A8002E3070BDA0020020056C000021630000D0
:1036B800A26B000070B5154C06793C2303FB06434A
:1036C800054693F82E305BB911491248124A40F268
:1036D8000F1302F079F8104840F20F1102F03BF98D
:1036E8002B680E4AC3F80823D3F8002222F00302FD
:1036F800C3F800220022C3F800253C2303FB06443C
:10370800012384F82E3084F8302070BDA0020020F8
:103718002F6C000021630000A26B000086420400A9
:103728002DE9F0470579474F4FF03C0909FB05F9AA
:10373800064657F809300C46904613BB0B78022B07
:103748000FD02378032B1CD13F4A4049404840F210
:10375800812302F039F83C4840F2812102F0FBF85D
:103768000FE04FF42073384A3A49394802F02CF8F0
:1037780035484FF4207102F0EEF857F80930002B65
:10378800DFD03C2303FB0573D6F8009093F82D3067
:10379800012B04D12378012B06D12F4811E0022BED
:1037A80002D12378012BF8D13C262C4BC9F80833D9
:1037B80006FB057696F830302BB1B3682848C9F86F
:1037C8000433BDE8F08788F00403C3F3800386F868
:1037D8003030C6F82080A646BEE80F0006F10C0C73
:1037E800ACE80F00DEF80030CCF800306368B36254
:1037F800E36873626378C9F888352378C5EB051ADE
:10380800012B07EB8A0A17D09BB9C8F340183C2351
:1038180003FB0573514683F82C804846FFF7C8FD23
:103828003C235D437A197B59002BCAD182F830308A
:10383800C7E74FF00108EAE751464846FFF724FE7C
:10384800EEE700BFA0020020A26B0000AA6C0000F7
:10385800216300005B6C00000500AD0B864204008C
:103868000B00AD0BF0B5324C236887B05BB931491A
:103878003148324A40F2A12301F0A6FF2F4840F216
:10388800A12102F068F82A492D4802F09FFA002881
:1038980040D194F82F70D4F820C0FFB9237B9A1E2A
:1038A800012A1BD8616AA269914217D1E269626252
:1038B800CCF3401C62691E492148A262032B84F89C
:1038C8002CC084F82D7004D107B0BDE8F040FFF794
:1038D8006FBD07B0BDE8F040FFF7D6BD194E0FCE5B
:1038E80001AD0FC533682B60FFB1154AD2F8C43457
:1038F800C2F8C43499070FD501238DF8003000238E
:103908001CF0040F84F8303000D01FB1D4E9003126
:103918006846984707B0F0BD5A0701D50223ECE77F
:10392800DB074CBF03230423E7E78DF80070E6E7C5
:10393800A0020020F96C000021630000A26B0000C7
:1039480000300040AC02002003685A090CBF4FF059
:10395800FF32002203F01F0322FA03F3DB0710B53E
:1039680004460BD410491148114A4FF4057301F06D
:103978002BFF0F484FF4057101F0EDFF236803F0AA
:103988001F025B0922600BD00A490848084A40F226
:10399800192301F019FF064840F2192101F0DBFF55
:1039A8004FF0A04010BD00BFC06A000021630000B6
:1039B8008D6A00008F640000F7B50C46064602F0D9
:1039C80091FA204602F08EFA01A80196FFF7BCFF93
:1039D800019B03F5E07340F20D6540F8235001A800
:1039E8000194FFF7B1FF019B03F5E073012740F84D
:1039F8002350042002F0CBF9092501A80194FFF710
:103A0800A3FF019AD0F81035D340DB0715D401A8DD
:103A18000196FFF799FF019B07FA03F3C0F80C35ED
:103A2800042002F0B4F9304602F05CFA013D0420AB
:103A380002F0ADF915F0FF05DFD101A80194FFF7F9
:103A480083FF019A01239340C0F80C35042002F04B
:103A58009EF9204602F046FA042002F098F901A8DF
:103A68000194FFF771FF019AD0F810350348D3404D
:103A780003F00103C01A03B0F0BD00BF0100AD0B95
:103A88000E4B70B553F82040013053F82060A64221
:103A980000D870BDD4E900352846984765B1EB6871
:103AA80030B10028B8BF4042FF28A8BFFF201870D7
:103AB8005A7842F001025A700834E8E7B46200000C
:103AC80070B5054610B90024204670BD0378002B58
:103AD800F9D00E4C0E4EB44208D10C4CB442F2D080
:103AE800204602F00DFA50B91834F7E7204602F0E4
:103AF80007FA10B12368AB42E6D01834EBE7216827
:103B0800284601F0B7FF0028EED1DDE7E45F0000AA
:103B180074600000F8B504460E464FF02003EFF33A
:103B2800118783F31288BFF36F8F01F055FA31467E
:103B38000546204602F0F7F9042C0CD10A490B4A35
:103B48000B488F2301F040FE0A4801F03DFE07486C
:103B58008F2101F000FF87F31188BFF36F8F28468C
:103B6800BDE8F840FDF728BF296D0000076D00008B
:103B780021630000466D000030B5002387B00122A4
:103B8800CDE904230F22CDE9023201930C4C0D4BF1
:103B98000D49182204EBC01402FB00334FF4907552
:103BA800009305FB0011094B4FF48072204600F08A
:103BB800A3F8637B23F00403637307B030BD00BF31
:103BC80070000020DC02002060070020253F000074
:103BD80008B50A4B012202201A70FFF751FF01F0C5
:103BE800D3FD0320FFF74CFF00F0EAF8FCF7E2FBF7
:103BF800034A137B23F00103137308BD220300203B
:103C0800F00000200248034A0021121A01F049BFBF
:103C1800700000202403002080B5DFF8BC80A6B027
:103C280088F308882D4D2E4E6B69DFF8B89043F461
:103C3800007300246B61E02385F82230EC772C7642
:103C48006C76AC766B6A43F4E0236B6285F82340AC
:103C5800FDF77CFEFDF7ECFB4FF0FF33AB62EB6248
:103C6800FDF78AFFFDF7BAFE40F20113ADF82430E4
:103C780006ABB360CDE91F4402F041F92046FFF7D7
:103C8800FFFE0120184DFFF7FBFE01F017F8174B58
:103C98000593012316490094CDE903434FF480624C
:103CA8004B46CDE901442846F56100F025F86A7BCA
:103CB800074622F0040228466A7300F0E9FC204611
:103CC800FFF75AFF0B4BF3604A46394628463475CE
:103CD800C6F80480FDF7BCFCA010002000ED00E051
:103CE800DC020020D93B0000F00000207B6D0000C2
:103CF80040030020700000202DE9F04385B0044601
:103D0800DDF83C80B8F10F0F0F461546994632D1C1
:103D1800254B994533D104F15803C4E91633109B58
:103D2800237307350423637325F0070507F1200380
:103D3800C4E919350E9B84F80E80029305F120081A
:103D48000D9B019300260C9B0093B8444B46C4E995
:103D58000666A660E673E666424639462046FDF7E3
:103D680045FC124B66659B6803B11B6F2367404691
:103D780005B0BDE8F08308F110031E2BCBD90C4A1F
:103D88000C490D4840F2052301F01EFD41460B4841
:103D98006FF00F030E2201F017FD054840F20521D0
:103DA80001F0D9FDB7E700BF253F0000DC02002085
:103DB800806D0000A36D000021630000236E0000E9
:103DC8002DE9F0433B4C3C4D3C4F87B0AC42264676
:103DD8000ED93B493B4840F2D5233A4601F0F4FC62
:103DE800394801F0F1FC40F2D521384601F0B3FD25
:103DF800AE4204F130041FD300F044FA2D4C2F4E8C
:103E0800DFF8BC80DFF8BC90AC420ED941464FF4D5
:103E18003D733246484601F0D7FC2B4801F0D4FCEC
:103E28004FF43D71304601F096FDAC4220D307B007
:103E3800BDE8F04300F076BE54F8043C059354F80E
:103E4800103C049354F8143C039354F8183C029320
:103E580054F81C3C019354F8203C009354E90C019D
:103E680054E90A23FFF748FF54F8303C5E65ADE794
:103E7800636A5A1C0FD023EAE3734FF4004240F2FE
:103E8800E7300021C3FB020151EAC333276804D19C
:103E9800384600F045FC3034B6E74FF47A72002318
:103EA800FCF706F902460B4607F11800074901F02E
:103EB800B3F9F0E76C0000206C000020806D000072
:103EC800546E000021630000816E0000D14700009D
:103ED800006838B1044B1B7D00F00300C01A18BFFE
:103EE8000120704701207047DC0200200649034684
:103EF8008A68087D1968024391424FF0000004BFA8
:103F080018600120704700BFDC020020024A117DC2
:103F180093680B4303607047DC020020114C08B51E
:103F2800A36893F90E30002B09DA0F490F48104A9D
:103F3800462301F049FC0E48462101F00CFD4FF0E4
:103F48002002EFF3118382F31288BFF36F8F01F021
:103F580079FAA061FDF7C2F90028F0D1FDF76EFAF1
:103F6800EDE700BFDC020020C16E00002163000005
:103F7800A06E000038B504464FF02003EFF311851A
:103F880083F31288BFF36F8F1448FFF7A1FF68B956
:103F9800134A14491448812301F016FC0F491348A9
:103FA80001F012FC0E48812101F0D5FC0B48FFF707
:103FB800ADFF204600F032FE48B10022826700F0D3
:103FC80067FB29460548BDE8384000F017B9D4E931
:103FD80002329A4218BF0133A360F2E704030020BB
:103FE800A7640000F9640000216300000E6500006A
:103FF800F7B5044616461D46EFF305837BB152EA32
:1040080005030CD03549364A3648792301F0DCFBE4
:10401800354801F0D9FB3248792101F09CFC4FF07A
:104028002003EFF3118783F31288BFF36F8F2F48B4
:10403800FFF74EFF68B92E4A2E492A48812301F01E
:10404800C3FB2A492C4801F0BFFB2948812101F014
:1040580082FC2648FFF75AFFA368D3B1013B2348E7
:10406800A360FFF743FF68B9214A24491D48AC23E0
:1040780001F0AAFB1D49224801F0A6FB1C48AC210F
:1040880001F069FC87F31188BFF36F8F002003B03C
:10409800F0BD56EA050318D11448FFF727FF68B9A1
:1040A800134A16490F48AC2301F08EFB0F491448F8
:1040B80001F08AFB0E48AC2101F04DFC87F3118812
:1040C800BFF36F8F6FF00F00E1E7CDE9006522467F
:1040D8003946064800F08CFCD9E700BF096F00009C
:1040E800E96E000021630000566F00000403002001
:1040F800A7640000F96400000E650000CD640000AC
:10410800E464000010B5084C23685BB1FEF722FE9A
:1041180003462068054A0344BDE8104013610021A6
:1041280001F0D8B910BD00BF14030020DC02002044
:10413800F8B504460D464FF02003EFF3118683F3DC
:104148001288BFF36F8F2348FFF7C2FE68B9224A6F
:1041580022492348812301F037FB1E49214801F0F9
:1041680033FB1D48812101F0F6FB1A48FFF7CEFE0C
:104178001D4B00214FF4004740F2E73019614FF41E
:104188007A720023E4FB0701FBF792FF002C174B20
:104198001BDC1860164B1D60FFF7B4FF0D48FFF7D6
:1041A800A5FE68B90C4A13490D48AC2301F00CFB75
:1041B8000849114801F008FB0748AC2101F0CBFB86
:1041C80086F31188BFF36F8FF8BD0228B8BF0220AD
:1041D800DFE700BF0C030020A7640000F9640000BB
:1041E800216300000E650000DC020020140300209B
:1041F80010030020CD640000E464000038B50446D4
:104208000D46E9B9EFF30583D3B9194BDA699B6811
:104218009A4215D0FFF76AFE68B9164A1649174838
:10422800C32301F0D1FA1648214601F0CDFA11480E
:10423800C32101F090FBBDE838400020FDF782B9AA
:104248002046FFF753FE68B90A4A0B490B48AC23CE
:1042580001F0BAFA0A48214601F0B6FA0548AC213D
:1042680001F079FB85F31188BFF36F8F38BD00BF6C
:10427800DC020020A7640000CD6400002163000078
:10428800E464000038B54FF02003EFF3118583F3A1
:104298001288BFF36F8F2948FFF71AFE68B9284ABA
:1042A80028492948812301F08FFA2449274801F039
:1042B8008BFA2348812101F04EFB2048FFF726FEA8
:1042C800EFF3058363B12249224A1F48FD2301F019
:1042D8007BFA214801F078FA1E48FD2101F03BFBEA
:1042E8001E4CA368DB7B012B0CD11D49194A1648CB
:1042F800FE2301F069FA184801F066FA1548FE2114
:1043080001F029FBA268D37B013BD3730B48FFF76D
:10431800EDFD68B90A4A13490B48AC2301F054FA79
:104328000649114801F050FA0548AC2101F013FB89
:1043380085F31188BFF36F8F38BD00BF0C030020D1
:10434800A7640000F9640000216300000E65000006
:10435800C76F00009C6F0000566F0000DC02002051
:10436800D96F0000CD640000E46400000C4B994252
:1043780010B50C460BD10B490B480C4A40F2B5332B
:1043880001F022FA094840F2B53101F0E4FAD4E923
:10439800003213605A600023C4E9003310BD00BF27
:1043A800700000207B6F000021630000596F00003F
:1043B800836810B504465BB90B490C480C4A40F2B7
:1043C800532301F001FA0A4840F2532101F0C3FADD
:1043D800A0682146FFF7CAFF637B23F002036373DB
:1043E8000023A36010BD00BF0A7000002163000015
:1043F800596F000038B502461448154D01F0B9FD53
:10440800044600B9EC68CAB9AB6863B91149124AE5
:104418001248812301F0D8F9114801F0D5F90E4866
:10442800812101F098FAAB685A7BD20606D1A269BD
:1044380022B9DA897F2A01D9EB6138BDAB68A3427A
:1044480001D0FFF75FFEEC61F7E700BFFC02002038
:10445800DC02002021700000596F00002163000079
:10446800566F000070B590F90D20437B002A044672
:1044780006DA03F07F03437301461E48FFF776FF11
:10448800637B63F07F0363731B4B9C4209D11B4919
:104498001B481C4AB12301F097F91A48B12101F0D1
:1044A8005AFA194AD2E9083002F12005AB421BD06A
:1044B800D3B194F90E6093F90E108E420FD0891B78
:1044C80000290CDD5968C4E900310C605C60906813
:1044D800031B5842BDE870405841FFF78BBF834229
:1044E80002D01B68002BE6D1C4E900500460546276
:1044F800EDE700BFFC020020700000207B6F000089
:1045080021630000596F0000DC02002038B5044622
:104518004FF02003EFF3118583F31288BFF36F8FF9
:104528002948FFF7D5FC68B9284A29492948812331
:1045380001F04AF92449284801F046F92348812125
:1045480001F009FA2048FFF7E1FC244B244A986857
:104558001168884218D1FFF7D5FD1B48FFF7C6FC44
:1045680068B91A4A1F491B48AC2301F02DF91649AE
:104578001D4801F029F91548AC2101F0ECF985F343
:104588001188BFF36F8F38BD00211160174A126878
:10459800BAB1C2897F2A14D8427BD20611D1144AF3
:1045A80090F90E10126891420BDB124A904208D023
:1045B8001A69A24202DCFFF755FFCCE7121B1A6109
:1045C800CBE70022FBE700BF0C030020A764000034
:1045D800F9640000216300000E650000DC02002081
:1045E80008030020CD640000E464000014030020E8
:1045F800100300207000002070B590F90D20437B57
:10460800002A044639DBDA0637D18269002A34D118
:1046180063F07F034373194B984209D1184919482D
:10462800194AB12301F0D0F81748B12101F093F9E4
:10463800164AD2E9083002F12005AB4218D0BBB1C6
:1046480094F90E6093F90E108E420CD0891B002944
:1046580009DD5A68C4E9003214605C60BDE8704046
:104668000020FFF7C7BE984202D01B68002BE9D193
:10467800C4E9005004605462F0E770BD7000002087
:104688007B6F000021630000596F0000DC020020EE
:1046980038B504464FF02003EFF3118583F31288F1
:1046A800BFF36F8F1748FFF713FC68B9164A17490D
:1046B8001748812301F088F81249164801F084F858
:1046C8001148812101F047F90E48FFF71FFC2046E9
:1046D800FFF792FF0B48FFF709FC68B90A4A0E4931
:1046E8000B48AC2301F070F806490C4801F06CF84F
:1046F8000548AC2101F02FF985F31188BFF36F8FBE
:1047080038BD00BF0C030020A7640000F964000056
:10471800216300000E650000CD640000E464000021
:1047280038B504464FF02003EFF3118583F3128860
:10473800BFF36F8F1D48FFF7CBFB68B91C4A1D49B3
:104748001D48812301F040F818491C4801F03CF845
:104758001748812101F0FFF81448FFF7D7FB637B66
:104768005A0716D41148FFF7C1FB68B9104A144913
:104778001148AC2301F028F80C49124801F024F83C
:104788000B48AC2101F0E7F885F31188BFF36F8F70
:1047980038BD23F0040320466373FFF72DFF294635
:1047A8000248BDE83840FFF729BD00BF0C030020D0
:1047B800A7640000F9640000216300000E65000092
:1047C800CD640000E464000070B504464FF0200397
:1047D800EFF3118683F31288BFF36F8F2048FFF73A
:1047E80077FB68B91F4A20492048812300F0ECFF75
:1047F8001B491F4800F0E8FF1A48812101F0ABF877
:104808001748FFF783FB14F80B3C13F0280F10D15F
:1048180054F8103CA4F1180513B12846FFF7C8FD59
:1048280014F80B3C23F0140304F80B3C2846FFF75C
:10483800E3FE0B48FFF75AFB68B90A4A0D490B48D3
:10484800AC2300F0C1FF06490B4800F0BDFF054846
:10485800AC2101F080F886F31188BFF36F8F70BD2B
:104868000C030020A7640000F96400002163000025
:104878000E650000CD640000E464000010B590F9F6
:104888000D20437B002A044606DA03F07F034373B6
:1048980001460648FFF76AFD054B9868031B584216
:1048A800BDE810405841FFF7A5BD00BFFC0200203D
:1048B800DC02002038B504460D46FFF7DFFF637BB6
:1048C80043F002036373FDB1164BA5609C4209D106
:1048D80015491648164AB12300F076FF1448B1214D
:1048E80001F039F82B689D4215D0A3B194F90E1048
:1048F80093F90E20914208D0521A002A05DD5A6811
:10490800C4E9003214605C6038BD6A68934202D022
:104918001B68002BECD16B68C4E900531C606C6009
:10492800F2E700BF700000207B6F000021630000E9
:10493800596F00002DE9F0410446884616461D4689
:104948004FF02003EFF3118783F31288BFF36F8FC3
:104958001F48FFF7BDFA68B91E4A1F491F4881233F
:1049680000F032FF1A491E4800F02EFF1948812135
:1049780000F0F1FF1648FFF7C9FA20464146FFF755
:1049880099FF1348FFF7B2FA68B9124A1549134854
:10499800AC2300F019FF0E49134800F015FF0D482D
:1049A800AC2100F0D8FF87F31188BFF36F8FB5F102
:1049B800FF3F08BFB6F1FF3F08D032462B4604F14F
:1049C80018000A49BDE8F04100F026BCBDE8F081B6
:1049D8000C030020A7640000F964000021630000B4
:1049E8000E650000CD640000E4640000D1470000BB
:1049F80038B5114B04469868104B0D46186011469F
:104A0800DDE90423FFF796FF2046FFF76FFA68B940
:104A18000B4A0C490C48C32300F0D6FE0B4821462C
:104A280000F0D2FE0648C32100F095FF2846BDE8F5
:104A38003840FCF787BD00BFDC02002008030020D7
:104A4800A7640000CD64000021630000E464000056
:104A580070B50446183000F0A7FC4FF02003EFF3C0
:104A6800118683F31288BFF36F8F2548FFF730FA5A
:104A780068B9244A24492548812300F0A5FE204925
:104A8800234800F0A1FE1F48812100F064FF1C4864
:104A9800FFF73CFA94F90D20637B002A06DA03F04D
:104AA8007F031C4863732146FFF760FC1A4D637B44
:104AB800A86843F010036373031B58425841FFF77B
:104AC80099FC0F48FFF712FA68B90E4A13490F48C4
:104AD800AC2300F079FE0A49114800F075FE094838
:104AE800AC2100F038FF86F31188BFF36F8FAB68F5
:104AF800A34203D1BDE8704001F031BA70BD00BFD8
:104B08000C030020A7640000F96400002163000082
:104B18000E650000FC020020DC020020CD640000CD
:104B2800E464000038B54FF02003EFF3118583F3F8
:104B38001288BFF36F8F2D48FFF7CAF968B92C4A5E
:104B48002C492D48812300F03FFE28492B4800F0CE
:104B58003BFE2748812100F0FEFE294C2348FFF741
:104B6800D5F9A368DB7B73B92649274A224840F266
:104B7800553300F029FE254800F026FE224840F271
:104B8800553100F0E8FEEFF3058373B120491E4A62
:104B9800194840F2563300F017FE1C4800F014FE86
:104BA800194840F2563100F0D6FEA268D37B013393
:104BB8000020D373FFF71EFC0C48FFF797F968B97C
:104BC8000B4A14490C48AC2300F0FEFD0749124873
:104BD80000F0FAFD0648AC2100F0BDFE85F311880F
:104BE800BFF36F8FBDE8384001F0B9B90C0300205E
:104BF800A7640000F9640000216300000E6500004E
:104C0800DC02002048700000596F0000566F000059
:104C1800C76F0000CD640000E464000038B50446A6
:104C28004FF02003EFF3118583F31288BFF36F8FE2
:104C38001B48FFF74DF968B91A4A1B491B488123DD
:104C480000F0C2FD16491A4800F0BEFD1548812142
:104C580000F081FE1248FFF759F9204601F089F962
:104C6800044628B1FFF7A4FB04F1180000F09CFBF0
:104C78000B48FFF73BF968B90A4A0E490B48AC23C1
:104C880000F0A2FD06490C4800F09EFD0548AC2145
:104C980000F061FE85F31188BFF36F8F204638BDA1
:104CA8000C030020A7640000F964000021630000E1
:104CB8000E650000CD640000E4640000044B002190
:104CC80003F12002C3E908220846FFF731BA00BF02
:104CD800DC020020F8B5EFF3058373B13F49404A81
:104CE800404840F2A14300F06FFD3F4800F06CFDE2
:104CF8003B4840F2A14100F02EFE4FF02003EFF3B5
:104D0800118683F31288BFF36F8F3848FFF7E0F8F6
:104D180068B9374A37493348812300F055FD33498C
:104D2800354800F051FD3248812100F014FE334D22
:104D38002E48FFF7EBF8A9684B7B03F07F034B7312
:104D480005F12000FFF712FBAC68637B63F07F037B
:104D580063732B4B9C4209D12A492248204AB1232C
:104D680000F032FD1E48B12100F0F5FDD5E908310B
:104D7800254883422DD063B394F90E7093F90E2021
:104D8800974221D0D21B002A1EDD5A68C4E900329E
:104D980014605C600120FFF72DFB1448FFF7A6F8AC
:104DA80068B9134A19490F48C32300F00DFD0F498C
:104DB800174800F009FD0E48C32100F0CCFD30462D
:104DC800BDE8F840FCF7BEBB8B4202D01B68002B45
:104DD800D4D1C4E900010C606C62DBE7C76F000046
:104DE800596F000021630000566F00000C0300207B
:104DF800A7640000F96400000E650000DC020020D2
:104E0800700000207B6F0000FC020020CD640000D1
:104E1800E46400002DE9F04105460E46EFF30583F2
:104E280073B14349434A444840F2BE4300F0CCFCC6
:104E3800424800F0C9FC3F4840F2BE4100F08BFDFB
:104E480055EA060303D1FFF745FF00206DE06FF038
:104E58000104641B4FF0FF3363EB0603012C73F16D
:104E6800000302DA01F08BF844194FF02003EFF346
:104E7800118883F31288BFF36F8F3148FFF728F842
:104E880068B9304A30492C48812300F09DFC2C49F0
:104E98002E4800F099FC2B48812100F05CFD2C4F36
:104EA8002748FFF733F82B4BB8681860FFF7E6FC84
:104EB800B86829492A463346183000F0ADF9BA686F
:104EC8001F48537B43F010035373FFF70FF868B97B
:104ED8001C4A22491848C32300F076FC1849204888
:104EE80000F072FC1748C32100F035FD4046FCF77E
:104EF80029FBBB685B7BDB060ED51A490D4A0E48B9
:104F080040F2DF4300F060FC0C4800F05DFC09480B
:104F180040F2DF4100F01FFD01F031F8201A63EB89
:104F28000303012873F100038FDBBDE8F08100BFA4
:104F3800C76F0000596F000021630000566F000022
:104F48000C030020A7640000F96400000E6500004F
:104F5800DC02002008030020D1470000CD640000D7
:104F6800E46400007970000038B505460C46EFF39C
:104F7800058373B11349144A144840F2EE4300F014
:104F880023FC134800F020FC0F4840F2EE4100F0EB
:104F9800E2FCB4F1FF3F08BFB5F1FF3F06D10D4B6E
:104FA8009868FFF755FD4FF0FF3038BD2846214679
:104FB800FFF730FF4FF47A7380FB0303C00B40EA1E
:104FC8004340F2E7C76F0000596F000021630000FB
:104FD800566F0000DC020020014B9868704700BF44
:104FE800DC0200202DE9F04104464FF02003EFF3E6
:104FF800118683F31288BFF36F8F4848FEF768FF66
:1050080068B9474A47494848812300F0DDFB4349CE
:10501800464800F0D9FB4248812100F09CFC3F48FB
:10502800FEF774FF637B1A0717D53C48FEF75EFF4F
:1050380068B93B4A3E493C48AC2300F0C5FB3749B8
:105048003C4800F0C1FB3648AC2100F084FC86F3F4
:105058001188BFF36F8FBDE8F08123F0200242F082
:105068000801D20942D16173A36813B12046FFF742
:105078009FF904F1180000F097F904F158074FF070
:105088000008A56DBD4201D0002D39D10120FFF7E0
:10509800B1F9294B9B68A342C7D1EFF30583002BD5
:1050A800C3D11E48FEF722FF68B91D4A20491E4891
:1050B800C32300F089FB19491E4800F085FB1848F6
:1050C800C32100F048FC3046FCF73CFA1B4A1C4957
:1050D800154840F2096300F077FB1A4800F074FBAA
:1050E800164840F2096100F036FC9EE703F05F03C2
:1050F80043F00803144863732146FFF737F9B3E711
:105108002846FFF755F905F1180000F04DF9C5F8E4
:1051180078802846FFF770FAB3E700BF0C03002039
:10512800A7640000F9640000216300000E65000018
:10513800CD640000E4640000DC020020596F000028
:105148008F640000B9700000FC02002008B5064812
:10515800064A0749121A00F099FCBDE80840054ABA
:105168000549064800F092BC000000206C000020B1
:10517800647100000000000064710000000000205D
:10518800034B1B680BB9FDF7E5BD0020704700BF56
:1051980018030020114B10B51C689C4208BF00245E
:1051A800FFF7EEFF03466CB1D4E90402C01A62EBC4
:1051B800E373012873F100020DDBB0F1004F73F1C6
:1051C800000301DB6FF00040054B1B6913B19842E7
:1051D800A8BF184610BD0020F6E700BF4C0000200D
:1051E800DC02002030B5036868B10A4A5268904270
:1051F80009D043B1D3E90421D0E90445121941EBA0
:105208000501C3E90421426813605A600023C0E91C
:10521800003330BD4C000020B3F1FF3F08BFB2F1AE
:10522800FF3F2DE9F04104460E46984615461F46B5
:1052380000F09E80036863B14E494F4A4F485D2392
:1052480000F0C2FA4E4800F0BFFA4B485D2100F06A
:1052580082FBA6604FF02003EFF3118683F31288D8
:10526800BFF36F8F4748FEF733FE68B9464A474990
:105278004248812300F0A8FA4249454800F0A4FAC0
:105288004148812100F067FB3E48FEF73FFE6FF082
:105298000102531B4FF0FF3060EB0703002B1BDBB1
:1052A8003C4BD3E90013521A60EB0303551B63EB25
:1052B8000707012D77F10003BCBF01250027C4E9CA
:1052C8000457354AD2E9003C934218D1C4E9002C6E
:1052D800CCF80040546026E0FFF752FF013548F152
:1052E80000082D1848EBE070C4E90450E9E7091AF2
:1052F80065EB07059C45C4E90415E7D01B68002B3E
:10530800E4D0D3E90407D4E90415814275EB070E0C
:10531800EDDA411A67EB0505C3E904155968C4E9D4
:1053280000310C605C60136893420BD09C4209D139
:10533800FFF730FF18B1194B1B69834202D00021D7
:10534800FDF7D6FC0F48FEF7D1FD68B90E4A14499F
:105358000A48AC2300F038FA0A49124800F034FA37
:105368000948AC2100F0F7FA86F31188BFF36F8F74
:10537800BDE8F081FF700000DB70000021630000D1
:10538800566F00001C030020A7640000F9640000A9
:105398000E650000700100204C000020DC02002097
:1053A800CD640000E464000038B504464FF02003E3
:1053B800EFF3118583F31288BFF36F8F1A48FEF756
:1053C80087FD68B9194A1A491A48812300F0FCF97F
:1053D8001549194800F0F8F91448812100F0BBFA82
:1053E8001148FEF793FD2368DBB12046FFF7FAFE6C
:1053F80000240D48FEF77AFD68B90C4A0F490D489C
:10540800AC2300F0E1F908490D4800F0DDF9074840
:10541800AC2100F0A0FA85F31188BFF36F8F204606
:1054280038BD6FF01504E4E71C030020A7640000F2
:10543800F9640000216300000E650000CD640000DF
:10544800E464000038B54FF02003EFF3118583F3CF
:105458001288BFF36F8F1848FEF73AFD68B9174AEC
:1054680017491848812300F0AFF91349164800F08E
:10547800ABF91248812100F06EFA0F48FEF746FD9D
:10548800FFF788FE04460C48FEF730FD68B90B4A62
:105498000E490C48AC2300F097F907490C4800F076
:1054A80093F90648AC2100F056FA85F31188BFF34A
:1054B8006F8F204638BD00BF1C030020A764000082
:1054C800F9640000216300000E650000CD6400004F
:1054D800E464000070B504460D464FF02003EFF376
:1054E800118683F31288BFF36F8F1B48FEF7F0FC19
:1054F80068B91A4A1A491B48812300F065F9164908
:10550800194800F061F91548812100F024FA124881
:10551800FEF7FCFCFFF73EFE012805DDA04203DB99
:1055280029462046FDF7E4FB0B48FEF7DFFC68B987
:105538000A4A0E490B48AC2300F046F906490C48C4
:1055480000F042F90548AC2100F005FA86F311880D
:10555800BFF36F8F70BD00BF1C030020A76400005D
:10556800F9640000216300000E650000CD640000AE
:10557800E46400002DE9F8430446FEF7C7FF4FF046
:105588002003EFF3118583F31288BFF36F8F4C4824
:10559800FEF79EFC68B94B4A4B494C48812300F002
:1055A80013F947494A4800F00FF94648812100F0AD
:1055B800D2F9484F4248DFF82081484EFEF7A6FC52
:1055C8003C60D8F800403A684445D6E9001E4FEAE6
:1055D800E2700BD054B1D4E9043C9A4270EB0C0948
:1055E80028DA9B1A6CEB000CC4E9043C52184EEB09
:1055F80000000024C6E900203C60FFF7CBFD2146EF
:10560800FDF776FB2E48FEF771FC68B92D4A344940
:105618002E48AC2300F0D8F82949324800F0D4F8D5
:105628002848AC2100F097F985F31188BFF36F8FF4
:10563800BDE8F88359184EEBE370D31A3B6000229B
:105648000023C6E90010C4E904232046FFF7CAFD79
:105658001B48FEF74BFC68B91A4A21491B48AC2382
:1056680000F0B2F816491F4800F0AEF81548AC2112
:1056780000F071F985F31188BFF36F8FA368204696
:1056880098474FF02003EFF3118583F31288BFF397
:105698006F8F0B48FEF71CFC68B90A4A0A490B4889
:1056A800812300F091F80649094800F08DF8054873
:1056B800812100F050F90248FEF728FC81E700BF7D
:1056C8001C030020A7640000F964000021630000A7
:1056D8000E650000180300204C0000207001002017
:1056E800CD640000E464000070B54FF02003EFF3D0
:1056F800118683F31288BFF36F8F1B48FEF7E8FB10
:1057080068B91A4A1A491B48812300F05DF81649FE
:10571800194800F059F81548812100F01CF9124881
:10572800FEF7F4FBFDF716FB144BD3E9004504190B
:105738000D4845F10005FEF7D9FB68B90B4A104939
:105748000C48AC2300F040F807490E4800F03CF83C
:105758000648AC2100F0FFF886F31188BFF36F8F7D
:105768002046294670BD00BF1C030020A764000026
:10577800F9640000216300000E650000700100203C
:10578800CD640000E4640000024A0349034800F0C5
:105798001BB800BF586F00001F7100003B7100006C
:1057A8007047034658B1426802F00302012A03D049
:1057B800032A04D1026812B10020986070476FF084
:1057C80015007047002070470FB407B504A951F8B9
:1057D800040B0191FAF77CFE03B05DF804EB04B00A
:1057E8007047838B13F0070305D10368002B0CBFA8
:1057F800002003207047022B05D1C38B002B14BF58
:10580800002004207047012B05D10368002B0CBF32
:10581800002005207047002070472DE9F0410D4613
:1058280007461946281D90461E46FAF723FE0446E9
:1058380038B13346424629463846A446BDE8F041C9
:105848006047BDE8F08110B50C4640B139B1081D7C
:10585800FFF7A7FF28B9A36833F0030301D06FF05F
:10586800150010BD38B50C46054658B151B10B6846
:1058780043B14B6833B12022002100F012F92C61AA
:10588800002038BD6FF01500FBE7044608B5084650
:1058980011461A46A047FFF79FFBFCF78DF82DE944
:1058A800F84F9A46D3786F2B80460F461546A3F1DA
:1058B800410B29D024D8582B14BF0A261026DDF80E
:1058C80028903246002340463946FAF7F1FB092A68
:1058D800D4B21ED83034B045E4B277F1000309F8E9
:1058E800014D01D3D14511D82B789B0605D5082E3B
:1058F80015D1AB7843F00803AB704846BDE8F88F84
:1059080003F0F703702BD7E70826D8E780460F4641
:10591800D7E7BBF1190F94BF37345734DBE7102EA4
:10592800EBD1AB7843F01003E6E72DE9F0410746E9
:10593800884615461E461446B442A4EB050002D319
:105948003EB923782BB114F8010B4146B84700281B
:10595800F2DABDE8F081404080F311884FF004008E
:1059680002DF704770470022C0E90022826070475A
:1059780070B588B015460DF10702029201228DF824
:10598800071003920024022207218DF81040059584
:1059980006928DF81C10836802A95E684823B047F8
:1059A800A04205DB2B885BBA2B80204608B070BD6F
:1059B8006FF00400FAE730B50D29056989B035D1D3
:1059C800072A02D11B68802B30D100242868ADF843
:1059D800044001AA0121FFF7CBFFA04203DA6FF0D0
:1059E800040009B030BDBDF8043028688DF81040B7
:1059F80023F001035BBA0DF10302ADF80630012371
:105A0800CDE902238DF8033002220DF10603059338
:105A180006928DF81C20836802A95C684823A04779
:105A28000028ACBF00206FF00400DAE76FF08500B3
:105A3800D7E7FEF76FB801460068FEF76BB800219C
:105A48000120FFF7F6BF08B5FBF762FDBDE8084087
:105A5800FBF734BE034600201A5C02B970470130D8
:105A6800FAE7034600201A5C0AB1884200D1704761
:105A78000130F8E7431E013913F8012F11F8010F1F
:105A8800824201D1002AF7D1101A704710B5431E7F
:105A98000A44914200D110BD11F8014B03F8014F9F
:105AA800F7E7C9B202440346934200D1704703F8AE
:105AB800011BF9E74FF0FF3070474FF02002EFF37A
:105AC800118382F31288BFF36F8F4FF08042012158
